S01700004763634170706C69636174696F6E312E737265635B
S11300000C942A000C9434000C9434000C943400A6
S11300100C9434000C9434000C9434000C9434008C
S11300200C9434000C9434000C9434000C9434007C
S11300300C9434000C9434000C9434000C9434006C
S11300400C9434000C9434000C9434000C9434005C
S11300500C94340011241FBECFE5D8E0DEBFCDBF21
S11300600E943A000C9476000C94000081B3806FD7
S113007081BB08950E94360025E030E01AC042B3E7
S113008081E090E0022E02C0880F991F0A94E2F7E3
S1130090942F982792BB4FE754E86EE141505040AB
S11300A06040E1F700C0000092B3892782BB2F5F54
S11300B03F4F283031051CF392B380E1982792BB5F
S11300C09FE724E83EE1915020403040E1F700C032
S11300D0000092B3892782BB4FE754E86EE1415098
S11300E050406040E1F700C00000C6CFF894FFCF55
S9030000FC
