S01700004763634170706C69636174696F6E312E737265635B
S11300000C942A000C9434000C9434000C943400A6
S11300100C9434000C9434000C9434000C9434008C
S11300200C9434000C9434000C9434000C9434007C
S11300300C9434000C9434000C9434000C9434006C
S11300400C9434000C9434000C9434000C9434005C
S11300500C94340011241FBECFE5D8E0DEBFCDBF21
S11300600E943A000C94A0000C94000081B3806FAD
S113007081BB08950E94360080E090E0809BFECF13
S1130080009779F595990DC022B3206222BB2FE722
S113009034E84EE1215030404040E1F700C0000018
S11300A0EDCF96990DC022B3206422BB2FE734E82C
S11300B04EE1215030404040E1F700C00000DECF67
S11300C09799DCCF82B3806882BB8FE794E82EE1F6
S11300D0815090402040E1F700C0000081E090E0B2
S11300E0CDCF979B0DC022B32F7722BB3FE744E8C7
S11300F02EE1315040402040E1F700C00000BECF67
S1130100969B0DC022B32F7B22BB3FE744E82EE130
S1130110315040402040E1F700C00000AFCF959B34
S1130120ADCF82B38F7D82BB3FE744E88EE131508F
S113013040408040E1F700C0000080E090E09ECFA6
S1070140F894FFCF5D
S9030000FC
