:100000000C942A000C9434000C9434000C943400AA
:100010000C9434000C9434000C9434000C94340090
:100020000C9434000C9434000C9434000C94340080
:100030000C9434000C9434000C9434000C94340070
:100040000C9434000C9434000C9434000C94340060
:100050000C94340011241FBECFE5D8E0DEBFCDBF25
:100060000E943A000C9470000C94000084B38C6FD2
:1000700084BB08950E94360040E050E02DC09A01F4
:1000800022953295307F3227207F32272B6025BB87
:100090002FED33E964E0215030406040E1F700C0CB
:1000A00000009C0122953295307F3227207F322735
:1000B000276025BB2FE936E861E0215030406040E1
:1000C000E1F700C00000019602C080E090E08A30B5
:1000D0009105ACF24F5F5F4F4A305105B4F3CCCF7E
:0400E000F894FFCFC2
:00000001FF
