:100000000C942A000C944B000C946A000C94890008
:100010000C9434000C9434000C9434000C94340090
:100020000C9434000C9434000C9434000C94340080
:100030000C9434000C9434000C9434000C94340070
:100040000C9434000C9434000C9434000C94340060
:100050000C94340011241FBECFE5D8E0DEBFCDBF25
:100060000E943A000C94A8000C94000082B3806EA9
:1000700082BB08950E9436008FB780688FBF8BB710
:10008000806E8BBF84B78F7B84BF85B78D6085BF43
:1000900082B382BBFDCF1F920F920FB60F92112435
:1000A0002F938F939F9382B3806282BB2FE38DE067
:1000B00093E0215080409040E1F700C000008AB7F3
:1000C00080628ABF9F918F912F910F900FBE0F90EA
:1000D0001F9018951F920F920FB60F9211242F9315
:1000E0008F939F9382B3806482BB2FE38DE093E074
:1000F000215080409040E1F700C000008AB7806442
:100100008ABF9F918F912F910F900FBE0F901F90DC
:1001100018951F920F920FB60F9211242F938F9361
:100120009F9382B3806882BB2FE38DE093E02150E0
:1001300080409040E1F700C000008AB780688ABF25
:100140009F918F912F910F900FBE0F901F90189538
:04015000F894FFCF51
:00000001FF
