S01700004763634170706C69636174696F6E312E737265635B
S11300000C942A000C9434000C9434000C943400A6
S11300100C9434000C9434000C9434000C9434008C
S11300200C9434000C9434000C9434000C9434007C
S11300300C9434000C9434000C9434000C9434006C
S11300400C9434000C9434000C9434000C9434005C
S11300500C94340011241FBECFE5D8E0DEBFCDBF21
S11300600E943A000C9487000C94000081B3806FC6
S113007081BB08950E94360025E030E016C042B3EB
S113008081E090E0022E02C0880F991F0A94E2F7E3
S1130090842B82BB4FE784E89EE14150804090402E
S11300A0E1F700C000002F5F3F4F283031053CF3DB
S11300B027E030E017C042B381E090E0022E02C096
S11300C0880F991F0A94E2F78095842382BB4FE737
S11300D084E89EE1415080409040E1F700C0000078
S11300E0215031092430310534F7809BC5CF82B3C8
S11300F0806182BB2FE34DE083E02150404080408B
S1130100E1F700C0000082B38F7E82BBB5CFF894C4
S1050110FFCF1B
S9030000FC
